:10000000A7C04BC471C4C9C0C8C0D6C3C6C0C5C090
:10001000C4C0C3C0C2C0C1C071C4BFC0BEC00000A4
:10002000000036000000000037000000000038002B
:10003000020202020202020202020102040810206D
:100040002004100801020000040000000000005E0F
:10005000BCE2613FDD83C29C7E20A3FD1F419DC3A6
:10006000217FFCA2401E5F01E3BD3E6082DC237D58
:100070009FC1421CFEA0E1BF5D0380DE3C62BEE08A
:10008000025CDF81633D7C22C09E1D43A1FF4618B8
:10009000FAA427799BC584DA3866E5BB5907DB8566
:1000A0006739BAE406581947A5FB7826C49A653B18
:1000B000D987045AB8E6A7F91B45C6987A24F8A64A
:1000C000441A99C7257B3A6486D85B05E7B98CD278
:1000D000306EEDB3510F4E10F2AC2F7193CD114F26
:1000E000ADF3702ECC92D38D6F31B2EC0E50AFF1D8
:1000F000134DCE90722C6D33D18F0C52B0EE326C0A
:100100008ED0530DEFB1F0AE4C1291CF2D73CA9437
:100110007628ABF517490856B4EA6937D58B5709E5
:10012000EBB536688AD495CB2977F4AA4816E9B797
:10013000550B88D6346A2B7597C94A14F6A8742AC9
:10014000C896154BA9F7B6E80A54D7896B352F071F
:1001500011241FBECFE5D2E0DEBFCDBF10E0A0E688
:10016000B0E0EEE5F8E102C005900D92AE36B107C1
:10017000D9F721E0AEE6B0E001C01D92A231B2078E
:10018000E1F710E0C8EAD0E003C02197FE01D4D621
:10019000C73AD107D1F7CAD360CB32CF83FD02C0B3
:1001A00098E001C098E28770892B98E10FB6F89427
:1001B000A89591BD0FBE81BDA89581B5806481BD14
:1001C000379885B7877E806185BF85B7806285BF98
:1001D000889585B78F7D85BF0FB6F894A89581B5B2
:1001E000886181BD11BC0FBE379A81B58F7B81BDFF
:1001F00008958091890090918A00019690938A00D9
:10020000809389000895089590E0FC01EC5BFF4F16
:100210003491FC01E65CFF4F2491FC01E05DFF4F4F
:10022000E491EE2339F1332399F0323071F028F460
:10023000313071F48AB58F770AC0333011F0343021
:1002400039F48CB58F7D8CBD03C08AB58F7D8ABD96
:10025000F0E0EE0FFF1FE65DFF4FA591B4918FB761
:10026000F894EC91611103C020952E2301C02E2B30
:100270002C938FBF0895CF93DF9390E0FC01E65C51
:10028000FF4F2491FC01E05DFF4F8491882361F1D1
:1002900090E0880F991FFC01EC5DFF4FC591D49150
:1002A000FC01E65DFF4FA591B491611109C09FB7B4
:1002B000F8948881209582238883EC912E230BC0AB
:1002C000623061F49FB7F8943881822F8095832340
:1002D0008883EC912E2B2C939FBF06C08FB7F89488
:1002E000E8812E2B28838FBFDF91CF910895833033
:1002F000910528F0880F991F04970197F1F7089549
:1003000061E083E081DF8FEC93E0F1DF60E083E088
:100310007BDF8AEA95E0EBCF61E083E075DF8AEF6F
:1003200090E0E5DF60E083E06FDF8AEA95E0DFCF11
:100330003FB7F8948091830090918400A09185004C
:10034000B091860022B708B601FE05C02F3F19F014
:100350000196A11DB11D3FBFBA2FA92F982F882745
:10036000820F911DA11DB11DBC01CD0143E0660F9F
:10037000771F881F991F4A95D1F708958F929F92F2
:10038000AF92BF92CF92DF92EF92FF926B017C010E
:10039000CFDF4B015C01C114D104E104F104E9F0A9
:1003A000C7DFDC01CB0188199909AA09BB09883E7E
:1003B0009340A105B10578F321E0C21AD108E10804
:1003C000F10888EE880E83E0981EA11CB11CC114B0
:1003D000D104E104F10421F7DECFFF90EF90DF902C
:1003E000CF90BF90AF909F908F900895FC01908127
:1003F0000180F281E02DF8948181892B8183228113
:10040000892F809528232283A2E0B0E01197F1F78D
:10041000218182238183A0E1B0E01197F1F78081EF
:100420007894E6E6F0E03197F1F7982381E009F45B
:1004300080E00895FC0190810180F281E02D892FF8
:10044000809560FF12C0F89422818223828381818B
:10045000892B8183A0E1B0E01197F1F78281982B7D
:10046000928378948AE690E011C0F89422818223E6
:1004700082838181892B8183AEE7B0E01197F1F708
:100480008281982B9283789486E090E00197F1F72F
:100490000895CF92DF92EF92FF920F931F93CF9325
:1004A000DF931F92CDB7DEB76C01E62E08E010E0B7
:1004B000FF24F39461E08F2D8E2109F460E0C601E2
:1004C0004983B8DFFF0C015011094981011511055D
:1004D00089F7411115C0F894D6011196ED91FC9160
:1004E000129791818C918095892381831196ED914A
:1004F000FC91129792818C918095892382837894C4
:100500000F90DF91CF911F910F91FF90EF90DF90AF
:10051000CF900895CF92DF92EF92FF920F931F93A7
:10052000CF93DF931F92CDB7DEB78C01F62E40E05C
:1005300065E57983AEDFCF2C7981D72E760188E00F
:10054000E80EF11CF60161916F0140E0C801A1DFE6
:10055000CE14DF04B9F70F90DF91CF911F910F9167
:10056000FF90EF90DF90CF9008950F931F93CF935C
:10057000DF93EC01162F60E0812F7DDE612F70E0AC
:10058000FB01E65CFF4FE491E883FB01E05DFF4F78
:10059000E491F0E0EE0FFF1FE25EFF4F8591949132
:1005A0009A8389831B861D861C86FE013B968E01DD
:1005B0000D5F1F4F1292E017F107E1F7DF91CF9126
:1005C0001F910F910895CF93DF93EC0183FF02C039
:1005D000A3DE01C095DEC2FF02C09EDE01C090DE38
:1005E000C1FF02C099DE01C08BDEC0FF02C094DEF5
:1005F00001C086DEDF93CF938AE690E09F938F93CE
:1006000089EB90E09F938F9357D60F900F900F90A8
:100610000F900F900F90DF91CF910895CF93DF93BC
:100620001092B8001092B7008AE090E09093B60064
:100630008093B50080911101A82FA695A695A69547
:10064000B0E0B093B200A093B100877090E06091E9
:10065000AD007091AE004091AB005091AC00E091C4
:10066000A900F091AA009D01280F391F260F371FFE
:10067000240F351F2E0F3F1F260F371F240F351F46
:10068000217033273093A6002093A500880F991F6F
:10069000820F931F9093B0008093AF002091B3001E
:1006A0003091B400265F3F4FA20FB31F8A0F9B1FEC
:1006B000860F971F840F951F8E0F9F1F680F791F3E
:1006C000460F571F4F7055275093A8004093A7001F
:1006D000C3E0D0E08091B7009091B80074DF8091C2
:1006E000B5009091B6006FDF8091B3009091B40097
:1006F0006ADF8091B1009091B20065DF8091AF0018
:100700009091B00060DF8091AD009091AE005BDF12
:100710008091AB009091AC0056DF8091A900909140
:10072000AA0051DF8091AD009091AE004CDF809126
:10073000AB009091AC0047DF8091A7009091A8009A
:1007400042DF64E170E080E090E018DE219711F66E
:10075000DF91CF910895FC0190810180F281E02D1D
:10076000F8948181292F20958223818378948DE7C5
:10077000815009F130813923D9F3F89482818223A1
:1007800082838181892B81837894ACEBB3E01197CC
:10079000F1F7F894818128232183A8E8B0E011972C
:1007A000F1F78081982381E009F080E07894E0E31C
:1007B000F3E03197F1F708951F920F920FB60F9261
:1007C00011242F933F938F939F93AF93BF93809167
:1007D0007F0090918000A0918100B09182003091C3
:1007E0007E0026E0230F2D3720F40296A11DB11DB7
:1007F00005C029E8230F0396A11DB11D20937E009B
:1008000080937F0090938000A0938100B09382003A
:100810008091830090918400A0918500B091860022
:100820000196A11DB11D8093830090938400A09335
:100830008500B0938600BF91AF919F918F913F91BA
:100840002F910F900FBE0F901F9018951F920F922F
:100850000FB60F9211242F933F934F935F936F9393
:100860007F938F939F93AF93BF93EF93FF93E09109
:100870006200F09163000995FF91EF91BF91AF91F4
:100880009F918F917F916F915F914F913F912F91A8
:100890000F900FBE0F901F9018951F920F920FB6DA
:1008A0000F9211242F933F934F935F936F937F93F6
:1008B0008F939F93AF93BF93EF93FF93E09160006B
:1008C000F09161000995FF91EF91BF91AF919F91D8
:1008D0008F917F916F915F914F913F912F910F90E9
:1008E0000FBE0F901F9018951F920F920FB60F9288
:1008F00011240F900FBE0F901F9018951F920F920A
:100900000FB60F9211248F930FB6F894A89581B566
:10091000886181BD11BC0FBEA89581B58F7B81BD5B
:100920008F910F900FBE0F901F901895CF93DF936C
:10093000CDB7DEB7A5970FB6F894DEBF0FBECDBF1B
:1009400078948AB582608ABD8AB581608ABD83B792
:10095000826083BF83B7816083BF89B7826089BFAC
:1009600080B7826080BF80B7816080BF329A319A41
:100970003098379A8CB580648CBD61E081E07BDC77
:1009800060E081E041DC60E082E075DC84E6809339
:10099000110161E083E06FDC60E083E035DC68EE4C
:1009A00073E080E090E0EADC34EB432E3BE2532E30
:1009B00031E1632E712C8E010C5F1F4F7E018BE1A4
:1009C000E80EF11CE7E0EE0DEBA31E01FFE02F0E99
:1009D000311C89E0820D8CA361E083E04CDC80B5A2
:1009E0008E7F80BD64EF71E080E090E0C7DC8CE03A
:1009F00087B962E070E080E090E0C0DC369A36991A
:100A0000FECF24B185B130E0382B032E000C440B0F
:100A1000550BC301B2013ED22093A1003093A20036
:100A20004093A3005093A400CA01B90126D320E04B
:100A300030E04AE754E486D260939D0070939E00B4
:100A400080939F009093A00062E082E014DC61E05C
:100A500081E011DC61E081E0D7DB61E082E0D4DBA2
:100A600068EE73E080E090E089DC10928A001092DA
:100A7000890089EF90E0909361008093600085B7D2
:100A80008C7F826085BF8BB780648BBF66EE73E01E
:100A900080E090E073DC2091890030918A00109210
:100AA0008A00109289008091870090918800820FBF
:100AB000931F8217930711F096958795909388005E
:100AC0008093870060E081E09FDB8BB78F7B8BBFDB
:100AD00083E091E0909361008093600060918700D3
:100AE0007091880080E090E0C6D260939900709386
:100AF0009A0080939B0090939C008EE0EBE8F0E0DE
:100B0000DE01119601900D928A95E1F78E85811193
:100B1000F8C0CE0101961FDE882309F4F2C040E040
:100B200060EFCE010196B5DCCC24C394B12CA12C8E
:100B3000DD24D394CE01019659DC682FCE010196B5
:100B40006DA354DC6DA1613019F48130B9F434C067
:100B50002B2D30E068131BC08C85D81638F4F801B3
:100B6000E20FF31F80818C2149F402C0D81631F0C6
:100B700060E0E8E0ED1550F0DD8608C0F801EB0D0F
:100B8000F11D80818C29808361E009C0AD2CF801C2
:100B9000E20FF31F90818C2D809589238083CE01F5
:100BA000019648DCD394CC0C19F4B394CC24C394B0
:100BB000F7E0FB1508F0BECF80E48D1508F0A1C06A
:100BC000AC86A11002C081E08E878C81882309F455
:100BD00098C0D801CE018396F7012D912193E81793
:100BE000F907D9F7D701E0E0FBA1FA1739F08D91A9
:100BF000E827F0E0E25BFF4FE491F6CF8AA1E8132B
:100C00008EC08B8D823241F0883231F0803109F014
:100C100086C0DD24D39401C0D12CCE0101969BDD8A
:100C2000B701CE01019676DC41E064E4CE01019685
:100C300030DC68EE73E080E090E0A0DBCE0101964E
:100C40008ADDB701CE01019665DC40E06EEBCE0196
:100C500001961FDC510188E0882E912C21E0C12CE7
:100C6000CE0101962DA3C2DB2DA18111C22A220F34
:100C700081E0881A9108A1F7F501C1925F01FCA1FA
:100C8000FA11E9CF688970E0762F66278F85682B87
:100C9000DD2089F0A3E0660F771FAA95E1F78E8922
:100CA0008031A9F42D898CE090E0821B9109607F4E
:100CB000680F791F0CC08B89807611F4687F07C09C
:100CC000803211F46C7F03C0803409F46E7F072EEC
:100CD000000C880B990BD1D120E030E040E85DE3B7
:100CE00058D24B015C019B01AC01BED28823F9F0C4
:100CF0006DEC862E7CEC972EE7ECAE2EF2ECBF2E40
:100D000016C01C861E861D86FE013C961292E017B8
:100D1000F107E1F76AEF70E080E090E02FDB2DEC67
:100D2000822E3CEC932E44E4A42E51E4B52E84E6AE
:100D300080931101C401D5018093090190930A01A8
:100D4000A0930B01B0930C01B401C50163D18AE0FB
:100D5000C82ED12CCB01B6018AD06B5F7F4F709328
:100D6000AE006093AD009093AC008093AB0020E0A8
:100D700030E040E251E4B401C5010BD24BD1CB01CC
:100D8000B60175D09093AA008093A9001092B40088
:100D90001092B30043DC68EE73E080E090E0EEDA9E
:100DA00020E030E04AE754E46091990070919A00A5
:100DB00080919B0090919C00C5D04B015C01609399
:100DC0000D0170930E0180930F019093100122D1B9
:100DD000CB01B6014CD07093AE006093AD00909300
:100DE000AC008093AB0020E030E040E251E4C5016C
:100DF000B401CFD10FD1CB01B60139D09093AA0065
:100E00008093A9008EE090E09093B4008093B300AB
:100E100005DC68EE73E080E090E0B0DA60E080E04E
:100E20002ADA60E083E027DA80B5816080BD96E051
:100E3000C92ED12C89E0B2D989E0B0D989E0AED9E8
:100E400088E0ACD987E0AAD981E0C81AD10891F727
:100E500080E090E0892B09F4BFCDD2D8BDCD60E011
:100E60008EE690E082DB60E08BE890E07ECB97FB43
:100E7000072E16F4009406D077FD08D027D007FC83
:100E800005D03EF4909581959F4F0895709561959A
:100E90007F4F0895052E97FB16F400940FD057FD51
:100EA00005D028D007FC02D046F408C050954095E4
:100EB000309521953F4F4F4F5F4F08959095809506
:100EC000709561957F4F8F4F9F4F0895AA1BBB1B55
:100ED00051E107C0AA1FBB1FA617B70710F0A61B3A
:100EE000B70B881F991F5A95A9F780959095BC015B
:100EF000CD010895A1E21A2EAA1BBB1BFD010DC056
:100F0000AA1FBB1FEE1FFF1FA217B307E407F507B9
:100F100020F0A21BB30BE40BF50B661F771F881F95
:100F2000991F1A9469F760957095809590959B012B
:100F3000AC01BD01CF010895EE0FFF1F0590F491A4
:100F4000E02D09940CD0EBC0E3D040F0DAD030F0C3
:100F500021F45F3F19F0CCC0511115C1CFC0F0D0C2
:100F600098F39923C9F35523B1F3951B550BBB2770
:100F7000AA2762177307840738F09F5F5F4F220F1D
:100F8000331F441FAA1FA9F333D00E2E3AF0E0E816
:100F900030D091505040E695001CCAF729D0FE2F62
:100FA00027D0660F771F881FBB1F261737074807F4
:100FB000AB07B0E809F0BB0B802DBF01FF279358AA
:100FC0005F4F2AF09E3F510568F092C0DCC05F3F42
:100FD000ECF3983EDCF3869577956795B795F79592
:100FE0009F5FC9F7880F911D9695879597F908958A
:100FF000E1E0660F771F881FBB1F62177307840726
:10100000BA0720F0621B730B840BBA0BEE1F88F734
:10101000E095089504D06894B111B5C0089598D0B2
:1010200088F09F5790F0B92F9927B751A0F0D1F0D1
:10103000660F771F881F991F1AF0BA95C9F712C05B
:10104000B13081F09FD0B1E008959CC0672F782F18
:101050008827B85F39F0B93FCCF3869577956795C7
:10106000B395D9F73EF490958095709561957F4F33
:101070008F4F9F4F0895E89409C097FB3EF49095D9
:101080008095709561957F4F8F4F9F4F9923A9F061
:10109000F92F96E9BB279395F695879577956795F0
:1010A000B795F111F8CFFAF4BB0F11F460FF1BC034
:1010B0006F5F7F4F8F4F9F4F16C0882311F096E9C7
:1010C00011C0772321F09EE8872F762F05C0662375
:1010D00071F096E8862F70E060E02AF09A95660F2E
:1010E000771F881FDAF7880F9695879597F90895E7
:1010F00097F99F6780E870E060E008959FEF80ECCB
:10110000089500240A94161617061806090608956D
:1011100000240A9412161306140605060895092ED3
:101120000394000C11F4882352F0BB0F40F4BF2B42
:1011300011F460FF04C06F5F7F4F8F4F9F4F089582
:1011400057FD9058440F551F59F05F3F71F0479578
:10115000880F97FB991F61F09F3F79F0879508955D
:10116000121613061406551FF2CF4695F1DF08C07C
:10117000161617061806991FF1CF86957105610599
:1011800008940895E894BB2766277727CB0197F941
:1011900008950AD0C4CFB5DF28F0BADF18F0952340
:1011A00009F0A6CFABCFEFCFCBDFA8F39923D9F3CC
:1011B0005523C9F3950F50E0551FAA27EE27FF27A7
:1011C000BB2700240894679520F4E20FF31FB41F97
:1011D0000A1E220F331F441FAA1F6695A9F7779591
:1011E00030F4F30FB41F0A1E121E08F46395330F78
:1011F000441FAA1F221F769599F7879520F4B40FF4
:101200000A1E121E631F440FAA1F221F331F86953A
:10121000A9F7862F712D602D11249F5750408AF019
:10122000E1F088234AF0EE0FFF1FBB1F661F771FF8
:10123000881F91505040A9F79E3F510570F058CF3C
:10124000A2CF5F3FECF3983EDCF3869577956795E8
:10125000B795F795E7959F5FC1F7FE2B880F911D16
:101260009695879597F9089503D0880B990B089563
:10127000990F0008550FAA0BE0E8FEEF16161706A7
:10128000E807F907C0F012161306E407F50798F00F
:10129000621B730B840B950B39F40A2661F0232B28
:1012A000242B252B21F408950A2609F4A140A695A4
:1012B0008FEF811D811D0895AEE0B0E0E1E6F9E019
:1012C000A3C20D891E8986E08C831A8309838FEF60
:1012D0009FE79E838D83AE01475E5F4F6F89788D58
:1012E000CE01019609D02F813885F801E20FF31F56
:1012F00010822E96E4E0A4C2ACE0B0E0E1E8F9E0B0
:1013000075C27C016B018A01FC0117821682838100
:1013100081FFB0C1CE0101964C01F7019381F60126
:1013200093FD859193FF81916F01882309F49EC1FC
:10133000853239F493FD859193FF81916F01853258
:1013400021F4B70190E0B1D1E8CF512C312C20E04D
:101350002032A0F48B3269F030F4803259F08332BD
:1013600069F420612CC08D3239F0803339F421606A
:1013700026C02260246023C0286021C027FD27C02A
:1013800030ED380F3A3078F426FF06C0852D6AE03C
:1013900024D2582E530E13C0832D6AE01ED2382E4D
:1013A000330E20620CC08E3221F426FD5FC1206412
:1013B00006C08C3611F4206802C0883641F4F6016C
:1013C00093FD859193FF81916F018111C1CF982F7A
:1013D0009F7D9554933028F40C5F1F4FFFE3F983F2
:1013E0000DC0833631F0833771F0833509F057C073
:1013F00021C0F801808189830E5F1F4F44244394EC
:10140000512C540114C03801F2E06F0E711CF80128
:10141000A080B18026FF03C0652D70E002C06FEF91
:101420007FEFC5012C8736D12C0183012C852F77C6
:10143000222E16C03801F2E06F0E711CF801A08058
:10144000B18026FF03C0652D70E002C06FEF7FEF13
:10145000C5012C8714D12C012C852068222E8301F4
:1014600023FC19C0832D90E048165906A0F4B7015B
:1014700080E290E01AD13A94F5CFF50127FC8591EE
:1014800027FE81915F01B70190E00FD131103A94AE
:10149000F1E04F1A51084114510479F7DEC0843647
:1014A00011F0893631F5F80127FF07C0608171819D
:1014B000828193810C5F1F4F08C060817181072E6C
:1014C000000C880B990B0E5F1F4F2F76722E97FF23
:1014D00009C090958095709561957F4F8F4F9F4F74
:1014E0002068722E2AE030E0A40117D1A82EA81897
:1014F00043C0853729F42F7EB22E2AE030E025C084
:10150000F22FF97FBF2E8F36C1F018F4883579F0AD
:10151000ADC0803719F0883721F0A8C02F2F206187
:10152000B22EB4FE0DC08B2D8460B82E09C024FFEE
:101530000AC09F2F9660B92E06C028E030E005C093
:1015400020E130E002C020E132E0F801B7FE07C040
:1015500060817181828193810C5F1F4F06C0608121
:10156000718180E090E00E5F1F4FA401D6D0A82EBD
:10157000A818FB2DFF777F2E76FE0BC0372D3E7F00
:10158000A51450F474FE0AC072FC08C0372D3E7ECC
:1015900005C0BA2C372D03C0BA2C01C0B52C34FFBE
:1015A0000DC0FE01EA0DF11D8081803311F4397EFA
:1015B00009C032FF06C0B394B39404C0832F867869
:1015C00009F0B39433FD12C030FF06C05A2CB31497
:1015D00018F4530C5B18B32CB31460F4B70180E219
:1015E00090E03C8762D0B3943C85F6CFB31410F4FE
:1015F0003B1801C0312C34FF11C0B70180E390E0EB
:101600003C8753D03C8532FF16C031FD03C088E7CC
:1016100090E002C088E590E0B7010CC0832F867887
:1016200051F031FF02C08BE201C080E237FD8DE254
:10163000B70190E03AD0A51430F4B70180E390E010
:1016400034D05A94F8CFAA94F401EA0DF11D8081A8
:10165000B70190E02AD0A110F6CF332009F45DCE77
:10166000B70180E290E021D03A94F7CFF70186816C
:10167000978102C08FEF9FEF2C96E2E1D3C0FC016F
:101680000590615070400110D8F7809590958E0FAD
:101690009F1F0895FC016150704001900110D8F720
:1016A000809590958E0F9F1F08950F931F93CF9352
:1016B000DF93FB01238121FD03C08FEF9FEF28C043
:1016C00022FF16C046815781248135814217530776
:1016D00044F4A081B1819D012F5F3F4F318320836E
:1016E0008C93268137812F5F3F4F3783268310C02D
:1016F000EB01092F182F0084F185E02D0995892B26
:10170000E1F68E819F8101969F838E83812F902F9A
:10171000DF91CF911F910F910895FA01AA272830E8
:1017200061F1203191F1E8946F936E7F6E5F7F4F8E
:101730008F4F9F4FAF4FB1E040D0B4E03ED0670F26
:10174000781F891F9A1FA11D680F791F8A1F911D7D
:10175000A11D6A0F711D811D911DA11D22D009F4CB
:1017600068943F91062E000C3019000C000C3019C3
:10177000305D3193CEF6CF010895462F4770405D1E
:101780004193B3E00FD0C9F7F6CF462F4F70405DBD
:101790004A3318F0495D31FD4052419302D0A9F718
:1017A000EACFB4E0A6959795879577956795BA9512
:1017B000C9F700976105710508959B01AC010A2ED8
:1017C00006945795479537952795BA95C9F7620FAF
:1017D000731F841F951FA01D0895002480FD060E11
:1017E000660F11F08695D1F7802D08952F923F92C4
:1017F0004F925F926F927F928F929F92AF92BF9221
:10180000CF92DF92EF92FF920F931F93CF93DF93CC
:10181000CDB7DEB7CA1BDB0B0FB6F894DEBF0FBE29
:10182000CDBF09942A88398848885F846E847D8476
:101830008C849B84AA84B984C884DF80EE80FD8078
:101840000C811B81AA81B981CE0FD11D0FB6F894EE
:0E185000DEBF0FBECDBFED010895F894FFCFAF
:0E185E00030103010000120180002578000044
:00000001FF
